{
  "_format": "hh-sol-artifact-1",
  "contractName": "SharklerNft",
  "sourceName": "contracts/SharklerNft.sol",
  "abi": [
    {
      "inputs": [
        {
          "internalType": "address",
          "name": "initialOwner",
          "type": "address"
        }
      ],
      "stateMutability": "nonpayable",
      "type": "constructor"
    },
    {
      "inputs": [
        {
          "internalType": "address",
          "name": "sender",
          "type": "address"
        },
        {
          "internalType": "uint256",
          "name": "tokenId",
          "type": "uint256"
        },
        {
          "internalType": "address",
          "name": "owner",
          "type": "address"
        }
      ],
      "name": "ERC721IncorrectOwner",
      "type": "error"
    },
    {
      "inputs": [
        {
          "internalType": "address",
          "name": "operator",
          "type": "address"
        },
        {
          "internalType": "uint256",
          "name": "tokenId",
          "type": "uint256"
        }
      ],
      "name": "ERC721InsufficientApproval",
      "type": "error"
    },
    {
      "inputs": [
        {
          "internalType": "address",
          "name": "approver",
          "type": "address"
        }
      ],
      "name": "ERC721InvalidApprover",
      "type": "error"
    },
    {
      "inputs": [
        {
          "internalType": "address",
          "name": "operator",
          "type": "address"
        }
      ],
      "name": "ERC721InvalidOperator",
      "type": "error"
    },
    {
      "inputs": [
        {
          "internalType": "address",
          "name": "owner",
          "type": "address"
        }
      ],
      "name": "ERC721InvalidOwner",
      "type": "error"
    },
    {
      "inputs": [
        {
          "internalType": "address",
          "name": "receiver",
          "type": "address"
        }
      ],
      "name": "ERC721InvalidReceiver",
      "type": "error"
    },
    {
      "inputs": [
        {
          "internalType": "address",
          "name": "sender",
          "type": "address"
        }
      ],
      "name": "ERC721InvalidSender",
      "type": "error"
    },
    {
      "inputs": [
        {
          "internalType": "uint256",
          "name": "tokenId",
          "type": "uint256"
        }
      ],
      "name": "ERC721NonexistentToken",
      "type": "error"
    },
    {
      "inputs": [
        {
          "internalType": "address",
          "name": "owner",
          "type": "address"
        }
      ],
      "name": "OwnableInvalidOwner",
      "type": "error"
    },
    {
      "inputs": [
        {
          "internalType": "address",
          "name": "account",
          "type": "address"
        }
      ],
      "name": "OwnableUnauthorizedAccount",
      "type": "error"
    },
    {
      "anonymous": false,
      "inputs": [
        {
          "indexed": true,
          "internalType": "address",
          "name": "owner",
          "type": "address"
        },
        {
          "indexed": true,
          "internalType": "address",
          "name": "approved",
          "type": "address"
        },
        {
          "indexed": true,
          "internalType": "uint256",
          "name": "tokenId",
          "type": "uint256"
        }
      ],
      "name": "Approval",
      "type": "event"
    },
    {
      "anonymous": false,
      "inputs": [
        {
          "indexed": true,
          "internalType": "address",
          "name": "owner",
          "type": "address"
        },
        {
          "indexed": true,
          "internalType": "address",
          "name": "operator",
          "type": "address"
        },
        {
          "indexed": false,
          "internalType": "bool",
          "name": "approved",
          "type": "bool"
        }
      ],
      "name": "ApprovalForAll",
      "type": "event"
    },
    {
      "anonymous": false,
      "inputs": [
        {
          "indexed": false,
          "internalType": "uint256",
          "name": "_fromTokenId",
          "type": "uint256"
        },
        {
          "indexed": false,
          "internalType": "uint256",
          "name": "_toTokenId",
          "type": "uint256"
        }
      ],
      "name": "BatchMetadataUpdate",
      "type": "event"
    },
    {
      "anonymous": false,
      "inputs": [
        {
          "indexed": false,
          "internalType": "uint256",
          "name": "_tokenId",
          "type": "uint256"
        }
      ],
      "name": "MetadataUpdate",
      "type": "event"
    },
    {
      "anonymous": false,
      "inputs": [
        {
          "indexed": true,
          "internalType": "address",
          "name": "previousOwner",
          "type": "address"
        },
        {
          "indexed": true,
          "internalType": "address",
          "name": "newOwner",
          "type": "address"
        }
      ],
      "name": "OwnershipTransferred",
      "type": "event"
    },
    {
      "anonymous": false,
      "inputs": [
        {
          "indexed": true,
          "internalType": "address",
          "name": "from",
          "type": "address"
        },
        {
          "indexed": true,
          "internalType": "address",
          "name": "to",
          "type": "address"
        },
        {
          "indexed": true,
          "internalType": "uint256",
          "name": "tokenId",
          "type": "uint256"
        }
      ],
      "name": "Transfer",
      "type": "event"
    },
    {
      "inputs": [
        {
          "internalType": "address",
          "name": "to",
          "type": "address"
        },
        {
          "internalType": "uint256",
          "name": "tokenId",
          "type": "uint256"
        }
      ],
      "name": "approve",
      "outputs": [],
      "stateMutability": "nonpayable",
      "type": "function"
    },
    {
      "inputs": [
        {
          "internalType": "address",
          "name": "owner",
          "type": "address"
        }
      ],
      "name": "balanceOf",
      "outputs": [
        {
          "internalType": "uint256",
          "name": "",
          "type": "uint256"
        }
      ],
      "stateMutability": "view",
      "type": "function"
    },
    {
      "inputs": [
        {
          "internalType": "address",
          "name": "recipient",
          "type": "address"
        },
        {
          "internalType": "string",
          "name": "metadataURI",
          "type": "string"
        }
      ],
      "name": "freeMint",
      "outputs": [
        {
          "internalType": "uint256",
          "name": "",
          "type": "uint256"
        }
      ],
      "stateMutability": "nonpayable",
      "type": "function"
    },
    {
      "inputs": [
        {
          "internalType": "uint256",
          "name": "tokenId",
          "type": "uint256"
        }
      ],
      "name": "getApproved",
      "outputs": [
        {
          "internalType": "address",
          "name": "",
          "type": "address"
        }
      ],
      "stateMutability": "view",
      "type": "function"
    },
    {
      "inputs": [
        {
          "internalType": "address",
          "name": "owner",
          "type": "address"
        },
        {
          "internalType": "address",
          "name": "operator",
          "type": "address"
        }
      ],
      "name": "isApprovedForAll",
      "outputs": [
        {
          "internalType": "bool",
          "name": "",
          "type": "bool"
        }
      ],
      "stateMutability": "view",
      "type": "function"
    },
    {
      "inputs": [
        {
          "internalType": "string",
          "name": "uri",
          "type": "string"
        }
      ],
      "name": "isContentOwned",
      "outputs": [
        {
          "internalType": "bool",
          "name": "",
          "type": "bool"
        }
      ],
      "stateMutability": "view",
      "type": "function"
    },
    {
      "inputs": [],
      "name": "name",
      "outputs": [
        {
          "internalType": "string",
          "name": "",
          "type": "string"
        }
      ],
      "stateMutability": "view",
      "type": "function"
    },
    {
      "inputs": [],
      "name": "owner",
      "outputs": [
        {
          "internalType": "address",
          "name": "",
          "type": "address"
        }
      ],
      "stateMutability": "view",
      "type": "function"
    },
    {
      "inputs": [
        {
          "internalType": "uint256",
          "name": "tokenId",
          "type": "uint256"
        }
      ],
      "name": "ownerOf",
      "outputs": [
        {
          "internalType": "address",
          "name": "",
          "type": "address"
        }
      ],
      "stateMutability": "view",
      "type": "function"
    },
    {
      "inputs": [
        {
          "internalType": "address",
          "name": "recipient",
          "type": "address"
        },
        {
          "internalType": "string",
          "name": "metadataURI",
          "type": "string"
        }
      ],
      "name": "payToMint",
      "outputs": [
        {
          "internalType": "uint256",
          "name": "",
          "type": "uint256"
        }
      ],
      "stateMutability": "payable",
      "type": "function"
    },
    {
      "inputs": [],
      "name": "renounceOwnership",
      "outputs": [],
      "stateMutability": "nonpayable",
      "type": "function"
    },
    {
      "inputs": [
        {
          "internalType": "address",
          "name": "from",
          "type": "address"
        },
        {
          "internalType": "address",
          "name": "to",
          "type": "address"
        },
        {
          "internalType": "uint256",
          "name": "tokenId",
          "type": "uint256"
        }
      ],
      "name": "safeTransferFrom",
      "outputs": [],
      "stateMutability": "nonpayable",
      "type": "function"
    },
    {
      "inputs": [
        {
          "internalType": "address",
          "name": "from",
          "type": "address"
        },
        {
          "internalType": "address",
          "name": "to",
          "type": "address"
        },
        {
          "internalType": "uint256",
          "name": "tokenId",
          "type": "uint256"
        },
        {
          "internalType": "bytes",
          "name": "data",
          "type": "bytes"
        }
      ],
      "name": "safeTransferFrom",
      "outputs": [],
      "stateMutability": "nonpayable",
      "type": "function"
    },
    {
      "inputs": [
        {
          "internalType": "address",
          "name": "operator",
          "type": "address"
        },
        {
          "internalType": "bool",
          "name": "approved",
          "type": "bool"
        }
      ],
      "name": "setApprovalForAll",
      "outputs": [],
      "stateMutability": "nonpayable",
      "type": "function"
    },
    {
      "inputs": [
        {
          "internalType": "bytes4",
          "name": "interfaceId",
          "type": "bytes4"
        }
      ],
      "name": "supportsInterface",
      "outputs": [
        {
          "internalType": "bool",
          "name": "",
          "type": "bool"
        }
      ],
      "stateMutability": "view",
      "type": "function"
    },
    {
      "inputs": [],
      "name": "symbol",
      "outputs": [
        {
          "internalType": "string",
          "name": "",
          "type": "string"
        }
      ],
      "stateMutability": "view",
      "type": "function"
    },
    {
      "inputs": [
        {
          "internalType": "uint256",
          "name": "tokenId",
          "type": "uint256"
        }
      ],
      "name": "tokenURI",
      "outputs": [
        {
          "internalType": "string",
          "name": "",
          "type": "string"
        }
      ],
      "stateMutability": "view",
      "type": "function"
    },
    {
      "inputs": [
        {
          "internalType": "address",
          "name": "from",
          "type": "address"
        },
        {
          "internalType": "address",
          "name": "to",
          "type": "address"
        },
        {
          "internalType": "uint256",
          "name": "tokenId",
          "type": "uint256"
        }
      ],
      "name": "transferFrom",
      "outputs": [],
      "stateMutability": "nonpayable",
      "type": "function"
    },
    {
      "inputs": [
        {
          "internalType": "address",
          "name": "newOwner",
          "type": "address"
        }
      ],
      "name": "transferOwnership",
      "outputs": [],
      "stateMutability": "nonpayable",
      "type": "function"
    },
    {
      "inputs": [
        {
          "internalType": "address",
          "name": "recipient",
          "type": "address"
        },
        {
          "internalType": "uint256",
          "name": "amount",
          "type": "uint256"
        }
      ],
      "name": "withdraw",
      "outputs": [],
      "stateMutability": "nonpayable",
      "type": "function"
    },
    {
      "inputs": [
        {
          "internalType": "address",
          "name": "recipient",
          "type": "address"
        }
      ],
      "name": "withdrawAll",
      "outputs": [],
      "stateMutability": "nonpayable",
      "type": "function"
    }
  ],
  "bytecode": "0x60806040523480156200001157600080fd5b506040516200344538038062003445833981810160405281019062000037919062000288565b806040518060400160405280600b81526020017f536861726b6c65724e66740000000000000000000000000000000000000000008152506040518060400160405280600381526020017f534b5200000000000000000000000000000000000000000000000000000000008152508160009081620000b5919062000534565b508060019081620000c7919062000534565b505050600073ffffffffffffffffffffffffffffffffffffffff168173ffffffffffffffffffffffffffffffffffffffff16036200013f5760006040517f1e4fbdf70000000000000000000000000000000000000000000000000000000081526004016200013691906200062c565b60405180910390fd5b62000150816200015860201b60201c565b505062000649565b6000600760009054906101000a900473ffffffffffffffffffffffffffffffffffffffff16905081600760006101000a81548173ffffffffffffffffffffffffffffffffffffffff021916908373ffffffffffffffffffffffffffffffffffffffff1602179055508173ffffffffffffffffffffffffffffffffffffffff168173ffffffffffffffffffffffffffffffffffffffff167f8be0079c531659141344cd1fd0a4f28419497f9722a3daafe3b4186f6b6457e060405160405180910390a35050565b600080fd5b600073ffffffffffffffffffffffffffffffffffffffff82169050919050565b6000620002508262000223565b9050919050565b620002628162000243565b81146200026e57600080fd5b50565b600081519050620002828162000257565b92915050565b600060208284031215620002a157620002a06200021e565b5b6000620002b18482850162000271565b91505092915050565b600081519050919050565b7f4e487b7100000000000000000000000000000000000000000000000000000000600052604160045260246000fd5b7f4e487b7100000000000000000000000000000000000000000000000000000000600052602260045260246000fd5b600060028204905060018216806200033c57607f821691505b602082108103620003525762000351620002f4565b5b50919050565b60008190508160005260206000209050919050565b60006020601f8301049050919050565b600082821b905092915050565b600060088302620003bc7fffffffffffffffffffffffffffffffffffffffffffffffffffffffffffffffff826200037d565b620003c886836200037d565b95508019841693508086168417925050509392505050565b6000819050919050565b6000819050919050565b6000620004156200040f6200040984620003e0565b620003ea565b620003e0565b9050919050565b6000819050919050565b6200043183620003f4565b6200044962000440826200041c565b8484546200038a565b825550505050565b600090565b6200046062000451565b6200046d81848462000426565b505050565b5b8181101562000495576200048960008262000456565b60018101905062000473565b5050565b601f821115620004e457620004ae8162000358565b620004b9846200036d565b81016020851015620004c9578190505b620004e1620004d8856200036d565b83018262000472565b50505b505050565b600082821c905092915050565b60006200050960001984600802620004e9565b1980831691505092915050565b6000620005248383620004f6565b9150826002028217905092915050565b6200053f82620002ba565b67ffffffffffffffff8111156200055b576200055a620002c5565b5b62000567825462000323565b6200057482828562000499565b600060209050601f831160018114620005ac576000841562000597578287015190505b620005a3858262000516565b86555062000613565b601f198416620005bc8662000358565b60005b82811015620005e657848901518255600182019150602085019450602081019050620005bf565b8683101562000606578489015162000602601f891682620004f6565b8355505b6001600288020188555050505b505050505050565b620006268162000243565b82525050565b60006020820190506200064360008301846200061b565b92915050565b612dec80620006596000396000f3fe60806040526004361061012a5760003560e01c8063715018a6116100ab578063b88d4fde1161006f578063b88d4fde14610409578063c87b56dd14610432578063e985e9c51461046f578063f2fde38b146104ac578063f3fef3a3146104d5578063fa09e630146104fe5761012a565b8063715018a6146103365780638da5cb5b1461034d57806395d89b41146103785780639f1cabc6146103a3578063a22cb465146103e05761012a565b806342842e0e116100f257806342842e0e14610226578063615fd9e21461024f5780636352211e1461027f57806370a08231146102bc578063711112be146102f95761012a565b806301ffc9a71461012f57806306fdde031461016c578063081812fc14610197578063095ea7b3146101d457806323b872dd146101fd575b600080fd5b34801561013b57600080fd5b5061015660048036038101906101519190611f5c565b610527565b6040516101639190611fa4565b60405180910390f35b34801561017857600080fd5b50610181610539565b60405161018e919061204f565b60405180910390f35b3480156101a357600080fd5b506101be60048036038101906101b991906120a7565b6105cb565b6040516101cb9190612115565b60405180910390f35b3480156101e057600080fd5b506101fb60048036038101906101f6919061215c565b6105e7565b005b34801561020957600080fd5b50610224600480360381019061021f919061219c565b6105fd565b005b34801561023257600080fd5b5061024d6004803603810190610248919061219c565b6106ff565b005b61026960048036038101906102649190612324565b61071f565b604051610276919061238f565b60405180910390f35b34801561028b57600080fd5b506102a660048036038101906102a191906120a7565b61077d565b6040516102b39190612115565b60405180910390f35b3480156102c857600080fd5b506102e360048036038101906102de91906123aa565b61078f565b6040516102f0919061238f565b60405180910390f35b34801561030557600080fd5b50610320600480360381019061031b9190612324565b610849565b60405161032d919061238f565b60405180910390f35b34801561034257600080fd5b5061034b610865565b005b34801561035957600080fd5b50610362610879565b60405161036f9190612115565b60405180910390f35b34801561038457600080fd5b5061038d6108a3565b60405161039a919061204f565b60405180910390f35b3480156103af57600080fd5b506103ca60048036038101906103c591906123d7565b610935565b6040516103d79190611fa4565b60405180910390f35b3480156103ec57600080fd5b506104076004803603810190610402919061244c565b610970565b005b34801561041557600080fd5b50610430600480360381019061042b919061252d565b610986565b005b34801561043e57600080fd5b50610459600480360381019061045491906120a7565b6109a3565b604051610466919061204f565b60405180910390f35b34801561047b57600080fd5b50610496600480360381019061049191906125b0565b6109b5565b6040516104a39190611fa4565b60405180910390f35b3480156104b857600080fd5b506104d360048036038101906104ce91906123aa565b610a49565b005b3480156104e157600080fd5b506104fc60048036038101906104f7919061215c565b610acf565b005b34801561050a57600080fd5b50610525600480360381019061052091906123aa565b610c14565b005b600061053282610c29565b9050919050565b6060600080546105489061261f565b80601f01602080910402602001604051908101604052809291908181526020018280546105749061261f565b80156105c15780601f10610596576101008083540402835291602001916105c1565b820191906000526020600020905b8154815290600101906020018083116105a457829003601f168201915b5050505050905090565b60006105d682610c8a565b506105e082610d12565b9050919050565b6105f982826105f4610d4f565b610d57565b5050565b600073ffffffffffffffffffffffffffffffffffffffff168273ffffffffffffffffffffffffffffffffffffffff160361066f5760006040517f64a0ae920000000000000000000000000000000000000000000000000000000081526004016106669190612115565b60405180910390fd5b6000610683838361067e610d4f565b610d69565b90508373ffffffffffffffffffffffffffffffffffffffff168173ffffffffffffffffffffffffffffffffffffffff16146106f9578382826040517f64283d7b0000000000000000000000000000000000000000000000000000000081526004016106f093929190612650565b60405180910390fd5b50505050565b61071a83838360405180602001604052806000815250610986565b505050565b600066b1a2bc2ec5000034101561076b576040517f08c379a0000000000000000000000000000000000000000000000000000000008152600401610762906126d3565b60405180910390fd5b6107758383610f83565b905092915050565b600061078882610c8a565b9050919050565b60008073ffffffffffffffffffffffffffffffffffffffff168273ffffffffffffffffffffffffffffffffffffffff16036108025760006040517f89c62b640000000000000000000000000000000000000000000000000000000081526004016107f99190612115565b60405180910390fd5b600360008373ffffffffffffffffffffffffffffffffffffffff1673ffffffffffffffffffffffffffffffffffffffff168152602001908152602001600020549050919050565b6000610853611067565b61085d8383610f83565b905092915050565b61086d611067565b61087760006110ee565b565b6000600760009054906101000a900473ffffffffffffffffffffffffffffffffffffffff16905090565b6060600180546108b29061261f565b80601f01602080910402602001604051908101604052809291908181526020018280546108de9061261f565b801561092b5780601f106109005761010080835404028352916020019161092b565b820191906000526020600020905b81548152906001019060200180831161090e57829003601f168201915b5050505050905090565b60006001600983604051610949919061272f565b908152602001604051809103902060009054906101000a900460ff1660ff16149050919050565b61098261097b610d4f565b83836111b4565b5050565b6109918484846105fd565b61099d84848484611323565b50505050565b60606109ae826114da565b9050919050565b6000600560008473ffffffffffffffffffffffffffffffffffffffff1673ffffffffffffffffffffffffffffffffffffffff16815260200190815260200160002060008373ffffffffffffffffffffffffffffffffffffffff1673ffffffffffffffffffffffffffffffffffffffff16815260200190815260200160002060009054906101000a900460ff16905092915050565b610a51611067565b600073ffffffffffffffffffffffffffffffffffffffff168173ffffffffffffffffffffffffffffffffffffffff1603610ac35760006040517f1e4fbdf7000000000000000000000000000000000000000000000000000000008152600401610aba9190612115565b60405180910390fd5b610acc816110ee565b50565b610ad7611067565b600047905060008111610b1f576040517f08c379a0000000000000000000000000000000000000000000000000000000008152600401610b16906127b8565b60405180910390fd5b81811015610b62576040517f08c379a0000000000000000000000000000000000000000000000000000000008152600401610b5990612824565b60405180910390fd5b60008373ffffffffffffffffffffffffffffffffffffffff1683604051610b8890612875565b60006040518083038185875af1925050503d8060008114610bc5576040519150601f19603f3d011682016040523d82523d6000602084013e610bca565b606091505b5050905080610c0e576040517f08c379a0000000000000000000000000000000000000000000000000000000008152600401610c05906128d6565b60405180910390fd5b50505050565b610c1c611067565b610c268147610acf565b50565b6000634906490660e01b7bffffffffffffffffffffffffffffffffffffffffffffffffffffffff1916827bffffffffffffffffffffffffffffffffffffffffffffffffffffffff19161480610c835750610c82826115ed565b5b9050919050565b600080610c96836116cf565b9050600073ffffffffffffffffffffffffffffffffffffffff168173ffffffffffffffffffffffffffffffffffffffff1603610d0957826040517f7e273289000000000000000000000000000000000000000000000000000000008152600401610d00919061238f565b60405180910390fd5b80915050919050565b60006004600083815260200190815260200160002060009054906101000a900473ffffffffffffffffffffffffffffffffffffffff169050919050565b600033905090565b610d64838383600161170c565b505050565b600080610d75846116cf565b9050600073ffffffffffffffffffffffffffffffffffffffff168373ffffffffffffffffffffffffffffffffffffffff1614610db757610db68184866118d1565b5b600073ffffffffffffffffffffffffffffffffffffffff168173ffffffffffffffffffffffffffffffffffffffff1614610e4857610df960008560008061170c565b6001600360008373ffffffffffffffffffffffffffffffffffffffff1673ffffffffffffffffffffffffffffffffffffffff168152602001908152602001600020600082825403925050819055505b600073ffffffffffffffffffffffffffffffffffffffff168573ffffffffffffffffffffffffffffffffffffffff1614610ecb576001600360008773ffffffffffffffffffffffffffffffffffffffff1673ffffffffffffffffffffffffffffffffffffffff168152602001908152602001600020600082825401925050819055505b846002600086815260200190815260200160002060006101000a81548173ffffffffffffffffffffffffffffffffffffffff021916908373ffffffffffffffffffffffffffffffffffffffff160217905550838573ffffffffffffffffffffffffffffffffffffffff168273ffffffffffffffffffffffffffffffffffffffff167fddf252ad1be2c89b69c2b068fc378daa952ba7f163c4a11628f55a4df523b3ef60405160405180910390a4809150509392505050565b60006001600983604051610f97919061272f565b908152602001604051809103902060009054906101000a900460ff1660ff1603610ff6576040517f08c379a0000000000000000000000000000000000000000000000000000000008152600401610fed90612942565b60405180910390fd5b60006008600081548092919061100b90612991565b9190505590506001600984604051611023919061272f565b908152602001604051809103902060006101000a81548160ff021916908360ff1602179055506110538482611995565b61105d81846119b3565b8091505092915050565b61106f610d4f565b73ffffffffffffffffffffffffffffffffffffffff1661108d610879565b73ffffffffffffffffffffffffffffffffffffffff16146110ec576110b0610d4f565b6040517f118cdaa70000000000000000000000000000000000000000000000000000000081526004016110e39190612115565b60405180910390fd5b565b6000600760009054906101000a900473ffffffffffffffffffffffffffffffffffffffff16905081600760006101000a81548173ffffffffffffffffffffffffffffffffffffffff021916908373ffffffffffffffffffffffffffffffffffffffff1602179055508173ffffffffffffffffffffffffffffffffffffffff168173ffffffffffffffffffffffffffffffffffffffff167f8be0079c531659141344cd1fd0a4f28419497f9722a3daafe3b4186f6b6457e060405160405180910390a35050565b600073ffffffffffffffffffffffffffffffffffffffff168273ffffffffffffffffffffffffffffffffffffffff160361122557816040517f5b08ba1800000000000000000000000000000000000000000000000000000000815260040161121c9190612115565b60405180910390fd5b80600560008573ffffffffffffffffffffffffffffffffffffffff1673ffffffffffffffffffffffffffffffffffffffff16815260200190815260200160002060008473ffffffffffffffffffffffffffffffffffffffff1673ffffffffffffffffffffffffffffffffffffffff16815260200190815260200160002060006101000a81548160ff0219169083151502179055508173ffffffffffffffffffffffffffffffffffffffff168373ffffffffffffffffffffffffffffffffffffffff167f17307eab39ab6107e8899845ad3d59bd9653f200f220920489ca2b5937696c31836040516113169190611fa4565b60405180910390a3505050565b60008373ffffffffffffffffffffffffffffffffffffffff163b11156114d4578273ffffffffffffffffffffffffffffffffffffffff1663150b7a02611367610d4f565b8685856040518563ffffffff1660e01b81526004016113899493929190612a2e565b6020604051808303816000875af19250505080156113c557506040513d601f19601f820116820180604052508101906113c29190612a8f565b60015b611449573d80600081146113f5576040519150601f19603f3d011682016040523d82523d6000602084013e6113fa565b606091505b50600081510361144157836040517f64a0ae920000000000000000000000000000000000000000000000000000000081526004016114389190612115565b60405180910390fd5b805181602001fd5b63150b7a0260e01b7bffffffffffffffffffffffffffffffffffffffffffffffffffffffff1916817bffffffffffffffffffffffffffffffffffffffffffffffffffffffff1916146114d257836040517f64a0ae920000000000000000000000000000000000000000000000000000000081526004016114c99190612115565b60405180910390fd5b505b50505050565b60606114e582610c8a565b5060006006600084815260200190815260200160002080546115069061261f565b80601f01602080910402602001604051908101604052809291908181526020018280546115329061261f565b801561157f5780601f106115545761010080835404028352916020019161157f565b820191906000526020600020905b81548152906001019060200180831161156257829003601f168201915b505050505090506000611590611a0f565b905060008151036115a55781925050506115e8565b6000825111156115da5780826040516020016115c2929190612abc565b604051602081830303815290604052925050506115e8565b6115e384611a26565b925050505b919050565b60007f80ac58cd000000000000000000000000000000000000000000000000000000007bffffffffffffffffffffffffffffffffffffffffffffffffffffffff1916827bffffffffffffffffffffffffffffffffffffffffffffffffffffffff191614806116b857507f5b5e139f000000000000000000000000000000000000000000000000000000007bffffffffffffffffffffffffffffffffffffffffffffffffffffffff1916827bffffffffffffffffffffffffffffffffffffffffffffffffffffffff1916145b806116c857506116c782611a8f565b5b9050919050565b60006002600083815260200190815260200160002060009054906101000a900473ffffffffffffffffffffffffffffffffffffffff169050919050565b80806117455750600073ffffffffffffffffffffffffffffffffffffffff168273ffffffffffffffffffffffffffffffffffffffff1614155b1561187957600061175584610c8a565b9050600073ffffffffffffffffffffffffffffffffffffffff168373ffffffffffffffffffffffffffffffffffffffff16141580156117c057508273ffffffffffffffffffffffffffffffffffffffff168173ffffffffffffffffffffffffffffffffffffffff1614155b80156117d357506117d181846109b5565b155b1561181557826040517fa9fbf51f00000000000000000000000000000000000000000000000000000000815260040161180c9190612115565b60405180910390fd5b811561187757838573ffffffffffffffffffffffffffffffffffffffff168273ffffffffffffffffffffffffffffffffffffffff167f8c5be1e5ebec7d5bd14f71427d1e84f3dd0314c0f7b2291e5b200ac8c7c3b92560405160405180910390a45b505b836004600085815260200190815260200160002060006101000a81548173ffffffffffffffffffffffffffffffffffffffff021916908373ffffffffffffffffffffffffffffffffffffffff16021790555050505050565b6118dc838383611af9565b61199057600073ffffffffffffffffffffffffffffffffffffffff168373ffffffffffffffffffffffffffffffffffffffff160361195157806040517f7e273289000000000000000000000000000000000000000000000000000000008152600401611948919061238f565b60405180910390fd5b81816040517f177e802f000000000000000000000000000000000000000000000000000000008152600401611987929190612ae0565b60405180910390fd5b505050565b6119af828260405180602001604052806000815250611bba565b5050565b806006600084815260200190815260200160002090816119d39190612cb5565b507ff8e1a15aba9398e019f0b49df1a4fde98ee17ae345cb5f6b5e2c27f5033e8ce782604051611a03919061238f565b60405180910390a15050565b606060405180602001604052806000815250905090565b6060611a3182610c8a565b506000611a3c611a0f565b90506000815111611a5c5760405180602001604052806000815250611a87565b80611a6684611bd6565b604051602001611a77929190612abc565b6040516020818303038152906040525b915050919050565b60007f01ffc9a7000000000000000000000000000000000000000000000000000000007bffffffffffffffffffffffffffffffffffffffffffffffffffffffff1916827bffffffffffffffffffffffffffffffffffffffffffffffffffffffff1916149050919050565b60008073ffffffffffffffffffffffffffffffffffffffff168373ffffffffffffffffffffffffffffffffffffffff1614158015611bb157508273ffffffffffffffffffffffffffffffffffffffff168473ffffffffffffffffffffffffffffffffffffffff161480611b725750611b7184846109b5565b5b80611bb057508273ffffffffffffffffffffffffffffffffffffffff16611b9883610d12565b73ffffffffffffffffffffffffffffffffffffffff16145b5b90509392505050565b611bc48383611ca4565b611bd16000848484611323565b505050565b606060006001611be584611d9d565b01905060008167ffffffffffffffff811115611c0457611c036121f9565b5b6040519080825280601f01601f191660200182016040528015611c365781602001600182028036833780820191505090505b509050600082602001820190505b600115611c99578080600190039150507f3031323334353637383961626364656600000000000000000000000000000000600a86061a8153600a8581611c8d57611c8c612d87565b5b04945060008503611c44575b819350505050919050565b600073ffffffffffffffffffffffffffffffffffffffff168273ffffffffffffffffffffffffffffffffffffffff1603611d165760006040517f64a0ae92000000000000000000000000000000000000000000000000000000008152600401611d0d9190612115565b60405180910390fd5b6000611d2483836000610d69565b9050600073ffffffffffffffffffffffffffffffffffffffff168173ffffffffffffffffffffffffffffffffffffffff1614611d985760006040517f73c6ac6e000000000000000000000000000000000000000000000000000000008152600401611d8f9190612115565b60405180910390fd5b505050565b600080600090507a184f03e93ff9f4daa797ed6e38ed64bf6a1f0100000000000000008310611dfb577a184f03e93ff9f4daa797ed6e38ed64bf6a1f0100000000000000008381611df157611df0612d87565b5b0492506040810190505b6d04ee2d6d415b85acef81000000008310611e38576d04ee2d6d415b85acef81000000008381611e2e57611e2d612d87565b5b0492506020810190505b662386f26fc100008310611e6757662386f26fc100008381611e5d57611e5c612d87565b5b0492506010810190505b6305f5e1008310611e90576305f5e1008381611e8657611e85612d87565b5b0492506008810190505b6127108310611eb5576127108381611eab57611eaa612d87565b5b0492506004810190505b60648310611ed85760648381611ece57611ecd612d87565b5b0492506002810190505b600a8310611ee7576001810190505b80915050919050565b6000604051905090565b600080fd5b600080fd5b60007fffffffff0000000000000000000000000000000000000000000000000000000082169050919050565b611f3981611f04565b8114611f4457600080fd5b50565b600081359050611f5681611f30565b92915050565b600060208284031215611f7257611f71611efa565b5b6000611f8084828501611f47565b91505092915050565b60008115159050919050565b611f9e81611f89565b82525050565b6000602082019050611fb96000830184611f95565b92915050565b600081519050919050565b600082825260208201905092915050565b60005b83811015611ff9578082015181840152602081019050611fde565b60008484015250505050565b6000601f19601f8301169050919050565b600061202182611fbf565b61202b8185611fca565b935061203b818560208601611fdb565b61204481612005565b840191505092915050565b600060208201905081810360008301526120698184612016565b905092915050565b6000819050919050565b61208481612071565b811461208f57600080fd5b50565b6000813590506120a18161207b565b92915050565b6000602082840312156120bd576120bc611efa565b5b60006120cb84828501612092565b91505092915050565b600073ffffffffffffffffffffffffffffffffffffffff82169050919050565b60006120ff826120d4565b9050919050565b61210f816120f4565b82525050565b600060208201905061212a6000830184612106565b92915050565b612139816120f4565b811461214457600080fd5b50565b60008135905061215681612130565b92915050565b6000806040838503121561217357612172611efa565b5b600061218185828601612147565b925050602061219285828601612092565b9150509250929050565b6000806000606084860312156121b5576121b4611efa565b5b60006121c386828701612147565b93505060206121d486828701612147565b92505060406121e586828701612092565b9150509250925092565b600080fd5b600080fd5b7f4e487b7100000000000000000000000000000000000000000000000000000000600052604160045260246000fd5b61223182612005565b810181811067ffffffffffffffff821117156122505761224f6121f9565b5b80604052505050565b6000612263611ef0565b905061226f8282612228565b919050565b600067ffffffffffffffff82111561228f5761228e6121f9565b5b61229882612005565b9050602081019050919050565b82818337600083830152505050565b60006122c76122c284612274565b612259565b9050828152602081018484840111156122e3576122e26121f4565b5b6122ee8482856122a5565b509392505050565b600082601f83011261230b5761230a6121ef565b5b813561231b8482602086016122b4565b91505092915050565b6000806040838503121561233b5761233a611efa565b5b600061234985828601612147565b925050602083013567ffffffffffffffff81111561236a57612369611eff565b5b612376858286016122f6565b9150509250929050565b61238981612071565b82525050565b60006020820190506123a46000830184612380565b92915050565b6000602082840312156123c0576123bf611efa565b5b60006123ce84828501612147565b91505092915050565b6000602082840312156123ed576123ec611efa565b5b600082013567ffffffffffffffff81111561240b5761240a611eff565b5b612417848285016122f6565b91505092915050565b61242981611f89565b811461243457600080fd5b50565b60008135905061244681612420565b92915050565b6000806040838503121561246357612462611efa565b5b600061247185828601612147565b925050602061248285828601612437565b9150509250929050565b600067ffffffffffffffff8211156124a7576124a66121f9565b5b6124b082612005565b9050602081019050919050565b60006124d06124cb8461248c565b612259565b9050828152602081018484840111156124ec576124eb6121f4565b5b6124f78482856122a5565b509392505050565b600082601f830112612514576125136121ef565b5b81356125248482602086016124bd565b91505092915050565b6000806000806080858703121561254757612546611efa565b5b600061255587828801612147565b945050602061256687828801612147565b935050604061257787828801612092565b925050606085013567ffffffffffffffff81111561259857612597611eff565b5b6125a4878288016124ff565b91505092959194509250565b600080604083850312156125c7576125c6611efa565b5b60006125d585828601612147565b92505060206125e685828601612147565b9150509250929050565b7f4e487b7100000000000000000000000000000000000000000000000000000000600052602260045260246000fd5b6000600282049050600182168061263757607f821691505b60208210810361264a576126496125f0565b5b50919050565b60006060820190506126656000830186612106565b6126726020830185612380565b61267f6040830184612106565b949350505050565b7f4e65656420746f20706179207570210000000000000000000000000000000000600082015250565b60006126bd600f83611fca565b91506126c882612687565b602082019050919050565b600060208201905081810360008301526126ec816126b0565b9050919050565b600081905092915050565b600061270982611fbf565b61271381856126f3565b9350612723818560208601611fdb565b80840191505092915050565b600061273b82846126fe565b915081905092915050565b7f4e6f7468696e6720746f2077697468647261773b20636f6e747261637420626160008201527f6c616e636520656d707479000000000000000000000000000000000000000000602082015250565b60006127a2602b83611fca565b91506127ad82612746565b604082019050919050565b600060208201905081810360008301526127d181612795565b9050919050565b7f436f6e747261637420696e737566666369656e742066756e6400000000000000600082015250565b600061280e601983611fca565b9150612819826127d8565b602082019050919050565b6000602082019050818103600083015261283d81612801565b9050919050565b600081905092915050565b50565b600061285f600083612844565b915061286a8261284f565b600082019050919050565b600061288082612852565b9150819050919050565b7f4661696c656420746f2073656e64204574686572000000000000000000000000600082015250565b60006128c0601483611fca565b91506128cb8261288a565b602082019050919050565b600060208201905081810360008301526128ef816128b3565b9050919050565b7f4e465420616c7265616479206d696e7465642100000000000000000000000000600082015250565b600061292c601383611fca565b9150612937826128f6565b602082019050919050565b6000602082019050818103600083015261295b8161291f565b9050919050565b7f4e487b7100000000000000000000000000000000000000000000000000000000600052601160045260246000fd5b600061299c82612071565b91507fffffffffffffffffffffffffffffffffffffffffffffffffffffffffffffffff82036129ce576129cd612962565b5b600182019050919050565b600081519050919050565b600082825260208201905092915050565b6000612a00826129d9565b612a0a81856129e4565b9350612a1a818560208601611fdb565b612a2381612005565b840191505092915050565b6000608082019050612a436000830187612106565b612a506020830186612106565b612a5d6040830185612380565b8181036060830152612a6f81846129f5565b905095945050505050565b600081519050612a8981611f30565b92915050565b600060208284031215612aa557612aa4611efa565b5b6000612ab384828501612a7a565b91505092915050565b6000612ac882856126fe565b9150612ad482846126fe565b91508190509392505050565b6000604082019050612af56000830185612106565b612b026020830184612380565b9392505050565b60008190508160005260206000209050919050565b60006020601f8301049050919050565b600082821b905092915050565b600060088302612b6b7fffffffffffffffffffffffffffffffffffffffffffffffffffffffffffffffff82612b2e565b612b758683612b2e565b95508019841693508086168417925050509392505050565b6000819050919050565b6000612bb2612bad612ba884612071565b612b8d565b612071565b9050919050565b6000819050919050565b612bcc83612b97565b612be0612bd882612bb9565b848454612b3b565b825550505050565b600090565b612bf5612be8565b612c00818484612bc3565b505050565b5b81811015612c2457612c19600082612bed565b600181019050612c06565b5050565b601f821115612c6957612c3a81612b09565b612c4384612b1e565b81016020851015612c52578190505b612c66612c5e85612b1e565b830182612c05565b50505b505050565b600082821c905092915050565b6000612c8c60001984600802612c6e565b1980831691505092915050565b6000612ca58383612c7b565b9150826002028217905092915050565b612cbe82611fbf565b67ffffffffffffffff811115612cd757612cd66121f9565b5b612ce1825461261f565b612cec828285612c28565b600060209050601f831160018114612d1f5760008415612d0d578287015190505b612d178582612c99565b865550612d7f565b601f198416612d2d86612b09565b60005b82811015612d5557848901518255600182019150602085019450602081019050612d30565b86831015612d725784890151612d6e601f891682612c7b565b8355505b6001600288020188555050505b505050505050565b7f4e487b7100000000000000000000000000000000000000000000000000000000600052601260045260246000fdfea264697066735822122066cde73557eed6862f821d10d823a47e929d6e3a60ba51cb8f6c89ffa7fddc0064736f6c63430008140033",
  "linkReferences": {},
  "deployedLinkReferences": {}
}