{
  "_format": "hh-sol-artifact-1",
  "contractName": "SharklerNft",
  "sourceName": "contracts/SharklerNft.sol",
  "abi": [
    {
      "inputs": [
        {
          "internalType": "address",
          "name": "initialOwner",
          "type": "address"
        }
      ],
      "stateMutability": "nonpayable",
      "type": "constructor"
    },
    {
      "inputs": [
        {
          "internalType": "address",
          "name": "sender",
          "type": "address"
        },
        {
          "internalType": "uint256",
          "name": "tokenId",
          "type": "uint256"
        },
        {
          "internalType": "address",
          "name": "owner",
          "type": "address"
        }
      ],
      "name": "ERC721IncorrectOwner",
      "type": "error"
    },
    {
      "inputs": [
        {
          "internalType": "address",
          "name": "operator",
          "type": "address"
        },
        {
          "internalType": "uint256",
          "name": "tokenId",
          "type": "uint256"
        }
      ],
      "name": "ERC721InsufficientApproval",
      "type": "error"
    },
    {
      "inputs": [
        {
          "internalType": "address",
          "name": "approver",
          "type": "address"
        }
      ],
      "name": "ERC721InvalidApprover",
      "type": "error"
    },
    {
      "inputs": [
        {
          "internalType": "address",
          "name": "operator",
          "type": "address"
        }
      ],
      "name": "ERC721InvalidOperator",
      "type": "error"
    },
    {
      "inputs": [
        {
          "internalType": "address",
          "name": "owner",
          "type": "address"
        }
      ],
      "name": "ERC721InvalidOwner",
      "type": "error"
    },
    {
      "inputs": [
        {
          "internalType": "address",
          "name": "receiver",
          "type": "address"
        }
      ],
      "name": "ERC721InvalidReceiver",
      "type": "error"
    },
    {
      "inputs": [
        {
          "internalType": "address",
          "name": "sender",
          "type": "address"
        }
      ],
      "name": "ERC721InvalidSender",
      "type": "error"
    },
    {
      "inputs": [
        {
          "internalType": "uint256",
          "name": "tokenId",
          "type": "uint256"
        }
      ],
      "name": "ERC721NonexistentToken",
      "type": "error"
    },
    {
      "inputs": [
        {
          "internalType": "address",
          "name": "owner",
          "type": "address"
        }
      ],
      "name": "OwnableInvalidOwner",
      "type": "error"
    },
    {
      "inputs": [
        {
          "internalType": "address",
          "name": "account",
          "type": "address"
        }
      ],
      "name": "OwnableUnauthorizedAccount",
      "type": "error"
    },
    {
      "anonymous": false,
      "inputs": [
        {
          "indexed": true,
          "internalType": "address",
          "name": "owner",
          "type": "address"
        },
        {
          "indexed": true,
          "internalType": "address",
          "name": "approved",
          "type": "address"
        },
        {
          "indexed": true,
          "internalType": "uint256",
          "name": "tokenId",
          "type": "uint256"
        }
      ],
      "name": "Approval",
      "type": "event"
    },
    {
      "anonymous": false,
      "inputs": [
        {
          "indexed": true,
          "internalType": "address",
          "name": "owner",
          "type": "address"
        },
        {
          "indexed": true,
          "internalType": "address",
          "name": "operator",
          "type": "address"
        },
        {
          "indexed": false,
          "internalType": "bool",
          "name": "approved",
          "type": "bool"
        }
      ],
      "name": "ApprovalForAll",
      "type": "event"
    },
    {
      "anonymous": false,
      "inputs": [
        {
          "indexed": false,
          "internalType": "uint256",
          "name": "_fromTokenId",
          "type": "uint256"
        },
        {
          "indexed": false,
          "internalType": "uint256",
          "name": "_toTokenId",
          "type": "uint256"
        }
      ],
      "name": "BatchMetadataUpdate",
      "type": "event"
    },
    {
      "anonymous": false,
      "inputs": [
        {
          "indexed": false,
          "internalType": "uint256",
          "name": "_tokenId",
          "type": "uint256"
        }
      ],
      "name": "MetadataUpdate",
      "type": "event"
    },
    {
      "anonymous": false,
      "inputs": [
        {
          "indexed": true,
          "internalType": "address",
          "name": "previousOwner",
          "type": "address"
        },
        {
          "indexed": true,
          "internalType": "address",
          "name": "newOwner",
          "type": "address"
        }
      ],
      "name": "OwnershipTransferred",
      "type": "event"
    },
    {
      "anonymous": false,
      "inputs": [
        {
          "indexed": true,
          "internalType": "address",
          "name": "from",
          "type": "address"
        },
        {
          "indexed": true,
          "internalType": "address",
          "name": "to",
          "type": "address"
        },
        {
          "indexed": true,
          "internalType": "uint256",
          "name": "tokenId",
          "type": "uint256"
        }
      ],
      "name": "Transfer",
      "type": "event"
    },
    {
      "inputs": [
        {
          "internalType": "address",
          "name": "to",
          "type": "address"
        },
        {
          "internalType": "uint256",
          "name": "tokenId",
          "type": "uint256"
        }
      ],
      "name": "approve",
      "outputs": [],
      "stateMutability": "nonpayable",
      "type": "function"
    },
    {
      "inputs": [
        {
          "internalType": "address",
          "name": "owner",
          "type": "address"
        }
      ],
      "name": "balanceOf",
      "outputs": [
        {
          "internalType": "uint256",
          "name": "",
          "type": "uint256"
        }
      ],
      "stateMutability": "view",
      "type": "function"
    },
    {
      "inputs": [],
      "name": "count",
      "outputs": [
        {
          "internalType": "uint256",
          "name": "",
          "type": "uint256"
        }
      ],
      "stateMutability": "view",
      "type": "function"
    },
    {
      "inputs": [
        {
          "internalType": "address",
          "name": "recipient",
          "type": "address"
        },
        {
          "internalType": "string",
          "name": "metadataURI",
          "type": "string"
        }
      ],
      "name": "freeMint",
      "outputs": [
        {
          "internalType": "uint256",
          "name": "",
          "type": "uint256"
        }
      ],
      "stateMutability": "nonpayable",
      "type": "function"
    },
    {
      "inputs": [
        {
          "internalType": "uint256",
          "name": "tokenId",
          "type": "uint256"
        }
      ],
      "name": "getApproved",
      "outputs": [
        {
          "internalType": "address",
          "name": "",
          "type": "address"
        }
      ],
      "stateMutability": "view",
      "type": "function"
    },
    {
      "inputs": [
        {
          "internalType": "address",
          "name": "owner",
          "type": "address"
        },
        {
          "internalType": "address",
          "name": "operator",
          "type": "address"
        }
      ],
      "name": "isApprovedForAll",
      "outputs": [
        {
          "internalType": "bool",
          "name": "",
          "type": "bool"
        }
      ],
      "stateMutability": "view",
      "type": "function"
    },
    {
      "inputs": [
        {
          "internalType": "string",
          "name": "uri",
          "type": "string"
        }
      ],
      "name": "isContentOwned",
      "outputs": [
        {
          "internalType": "bool",
          "name": "",
          "type": "bool"
        }
      ],
      "stateMutability": "view",
      "type": "function"
    },
    {
      "inputs": [],
      "name": "name",
      "outputs": [
        {
          "internalType": "string",
          "name": "",
          "type": "string"
        }
      ],
      "stateMutability": "view",
      "type": "function"
    },
    {
      "inputs": [],
      "name": "owner",
      "outputs": [
        {
          "internalType": "address",
          "name": "",
          "type": "address"
        }
      ],
      "stateMutability": "view",
      "type": "function"
    },
    {
      "inputs": [
        {
          "internalType": "uint256",
          "name": "tokenId",
          "type": "uint256"
        }
      ],
      "name": "ownerOf",
      "outputs": [
        {
          "internalType": "address",
          "name": "",
          "type": "address"
        }
      ],
      "stateMutability": "view",
      "type": "function"
    },
    {
      "inputs": [
        {
          "internalType": "address",
          "name": "recipient",
          "type": "address"
        },
        {
          "internalType": "string",
          "name": "metadataURI",
          "type": "string"
        }
      ],
      "name": "payToMint",
      "outputs": [
        {
          "internalType": "uint256",
          "name": "",
          "type": "uint256"
        }
      ],
      "stateMutability": "payable",
      "type": "function"
    },
    {
      "inputs": [],
      "name": "renounceOwnership",
      "outputs": [],
      "stateMutability": "nonpayable",
      "type": "function"
    },
    {
      "inputs": [
        {
          "internalType": "address",
          "name": "from",
          "type": "address"
        },
        {
          "internalType": "address",
          "name": "to",
          "type": "address"
        },
        {
          "internalType": "uint256",
          "name": "tokenId",
          "type": "uint256"
        }
      ],
      "name": "safeTransferFrom",
      "outputs": [],
      "stateMutability": "nonpayable",
      "type": "function"
    },
    {
      "inputs": [
        {
          "internalType": "address",
          "name": "from",
          "type": "address"
        },
        {
          "internalType": "address",
          "name": "to",
          "type": "address"
        },
        {
          "internalType": "uint256",
          "name": "tokenId",
          "type": "uint256"
        },
        {
          "internalType": "bytes",
          "name": "data",
          "type": "bytes"
        }
      ],
      "name": "safeTransferFrom",
      "outputs": [],
      "stateMutability": "nonpayable",
      "type": "function"
    },
    {
      "inputs": [
        {
          "internalType": "address",
          "name": "operator",
          "type": "address"
        },
        {
          "internalType": "bool",
          "name": "approved",
          "type": "bool"
        }
      ],
      "name": "setApprovalForAll",
      "outputs": [],
      "stateMutability": "nonpayable",
      "type": "function"
    },
    {
      "inputs": [
        {
          "internalType": "bytes4",
          "name": "interfaceId",
          "type": "bytes4"
        }
      ],
      "name": "supportsInterface",
      "outputs": [
        {
          "internalType": "bool",
          "name": "",
          "type": "bool"
        }
      ],
      "stateMutability": "view",
      "type": "function"
    },
    {
      "inputs": [],
      "name": "symbol",
      "outputs": [
        {
          "internalType": "string",
          "name": "",
          "type": "string"
        }
      ],
      "stateMutability": "view",
      "type": "function"
    },
    {
      "inputs": [
        {
          "internalType": "uint256",
          "name": "tokenId",
          "type": "uint256"
        }
      ],
      "name": "tokenURI",
      "outputs": [
        {
          "internalType": "string",
          "name": "",
          "type": "string"
        }
      ],
      "stateMutability": "view",
      "type": "function"
    },
    {
      "inputs": [
        {
          "internalType": "address",
          "name": "from",
          "type": "address"
        },
        {
          "internalType": "address",
          "name": "to",
          "type": "address"
        },
        {
          "internalType": "uint256",
          "name": "tokenId",
          "type": "uint256"
        }
      ],
      "name": "transferFrom",
      "outputs": [],
      "stateMutability": "nonpayable",
      "type": "function"
    },
    {
      "inputs": [
        {
          "internalType": "address",
          "name": "newOwner",
          "type": "address"
        }
      ],
      "name": "transferOwnership",
      "outputs": [],
      "stateMutability": "nonpayable",
      "type": "function"
    },
    {
      "inputs": [
        {
          "internalType": "address",
          "name": "recipient",
          "type": "address"
        },
        {
          "internalType": "uint256",
          "name": "amount",
          "type": "uint256"
        }
      ],
      "name": "withdraw",
      "outputs": [],
      "stateMutability": "nonpayable",
      "type": "function"
    },
    {
      "inputs": [
        {
          "internalType": "address",
          "name": "recipient",
          "type": "address"
        }
      ],
      "name": "withdrawAll",
      "outputs": [],
      "stateMutability": "nonpayable",
      "type": "function"
    }
  ],
  "bytecode": "0x60806040523480156200001157600080fd5b506040516200348538038062003485833981810160405281019062000037919062000288565b806040518060400160405280600b81526020017f536861726b6c65724e66740000000000000000000000000000000000000000008152506040518060400160405280600381526020017f534b5200000000000000000000000000000000000000000000000000000000008152508160009081620000b5919062000534565b508060019081620000c7919062000534565b505050600073ffffffffffffffffffffffffffffffffffffffff168173ffffffffffffffffffffffffffffffffffffffff16036200013f5760006040517f1e4fbdf70000000000000000000000000000000000000000000000000000000081526004016200013691906200062c565b60405180910390fd5b62000150816200015860201b60201c565b505062000649565b6000600760009054906101000a900473ffffffffffffffffffffffffffffffffffffffff16905081600760006101000a81548173ffffffffffffffffffffffffffffffffffffffff021916908373ffffffffffffffffffffffffffffffffffffffff1602179055508173ffffffffffffffffffffffffffffffffffffffff168173ffffffffffffffffffffffffffffffffffffffff167f8be0079c531659141344cd1fd0a4f28419497f9722a3daafe3b4186f6b6457e060405160405180910390a35050565b600080fd5b600073ffffffffffffffffffffffffffffffffffffffff82169050919050565b6000620002508262000223565b9050919050565b620002628162000243565b81146200026e57600080fd5b50565b600081519050620002828162000257565b92915050565b600060208284031215620002a157620002a06200021e565b5b6000620002b18482850162000271565b91505092915050565b600081519050919050565b7f4e487b7100000000000000000000000000000000000000000000000000000000600052604160045260246000fd5b7f4e487b7100000000000000000000000000000000000000000000000000000000600052602260045260246000fd5b600060028204905060018216806200033c57607f821691505b602082108103620003525762000351620002f4565b5b50919050565b60008190508160005260206000209050919050565b60006020601f8301049050919050565b600082821b905092915050565b600060088302620003bc7fffffffffffffffffffffffffffffffffffffffffffffffffffffffffffffffff826200037d565b620003c886836200037d565b95508019841693508086168417925050509392505050565b6000819050919050565b6000819050919050565b6000620004156200040f6200040984620003e0565b620003ea565b620003e0565b9050919050565b6000819050919050565b6200043183620003f4565b6200044962000440826200041c565b8484546200038a565b825550505050565b600090565b6200046062000451565b6200046d81848462000426565b505050565b5b8181101562000495576200048960008262000456565b60018101905062000473565b5050565b601f821115620004e457620004ae8162000358565b620004b9846200036d565b81016020851015620004c9578190505b620004e1620004d8856200036d565b83018262000472565b50505b505050565b600082821c905092915050565b60006200050960001984600802620004e9565b1980831691505092915050565b6000620005248383620004f6565b9150826002028217905092915050565b6200053f82620002ba565b67ffffffffffffffff8111156200055b576200055a620002c5565b5b62000567825462000323565b6200057482828562000499565b600060209050601f831160018114620005ac576000841562000597578287015190505b620005a3858262000516565b86555062000613565b601f198416620005bc8662000358565b60005b82811015620005e657848901518255600182019150602085019450602081019050620005bf565b8683101562000606578489015162000602601f891682620004f6565b8355505b6001600288020188555050505b505050505050565b620006268162000243565b82525050565b60006020820190506200064360008301846200061b565b92915050565b612e2c80620006596000396000f3fe6080604052600436106101355760003560e01c8063715018a6116100ab578063b88d4fde1161006f578063b88d4fde1461043f578063c87b56dd14610468578063e985e9c5146104a5578063f2fde38b146104e2578063f3fef3a31461050b578063fa09e6301461053457610135565b8063715018a61461036c5780638da5cb5b1461038357806395d89b41146103ae5780639f1cabc6146103d9578063a22cb4651461041657610135565b806323b872dd116100fd57806323b872dd1461023357806342842e0e1461025c578063615fd9e2146102855780636352211e146102b557806370a08231146102f2578063711112be1461032f57610135565b806301ffc9a71461013a57806306661abd1461017757806306fdde03146101a2578063081812fc146101cd578063095ea7b31461020a575b600080fd5b34801561014657600080fd5b50610161600480360381019061015c9190611f9c565b61055d565b60405161016e9190611fe4565b60405180910390f35b34801561018357600080fd5b5061018c61056f565b6040516101999190612018565b60405180910390f35b3480156101ae57600080fd5b506101b7610579565b6040516101c491906120c3565b60405180910390f35b3480156101d957600080fd5b506101f460048036038101906101ef9190612111565b61060b565b604051610201919061217f565b60405180910390f35b34801561021657600080fd5b50610231600480360381019061022c91906121c6565b610627565b005b34801561023f57600080fd5b5061025a60048036038101906102559190612206565b61063d565b005b34801561026857600080fd5b50610283600480360381019061027e9190612206565b61073f565b005b61029f600480360381019061029a919061238e565b61075f565b6040516102ac9190612018565b60405180910390f35b3480156102c157600080fd5b506102dc60048036038101906102d79190612111565b6107bd565b6040516102e9919061217f565b60405180910390f35b3480156102fe57600080fd5b50610319600480360381019061031491906123ea565b6107cf565b6040516103269190612018565b60405180910390f35b34801561033b57600080fd5b506103566004803603810190610351919061238e565b610889565b6040516103639190612018565b60405180910390f35b34801561037857600080fd5b506103816108a5565b005b34801561038f57600080fd5b506103986108b9565b6040516103a5919061217f565b60405180910390f35b3480156103ba57600080fd5b506103c36108e3565b6040516103d091906120c3565b60405180910390f35b3480156103e557600080fd5b5061040060048036038101906103fb9190612417565b610975565b60405161040d9190611fe4565b60405180910390f35b34801561042257600080fd5b5061043d6004803603810190610438919061248c565b6109b0565b005b34801561044b57600080fd5b506104666004803603810190610461919061256d565b6109c6565b005b34801561047457600080fd5b5061048f600480360381019061048a9190612111565b6109e3565b60405161049c91906120c3565b60405180910390f35b3480156104b157600080fd5b506104cc60048036038101906104c791906125f0565b6109f5565b6040516104d99190611fe4565b60405180910390f35b3480156104ee57600080fd5b50610509600480360381019061050491906123ea565b610a89565b005b34801561051757600080fd5b50610532600480360381019061052d91906121c6565b610b0f565b005b34801561054057600080fd5b5061055b600480360381019061055691906123ea565b610c54565b005b600061056882610c69565b9050919050565b6000600854905090565b6060600080546105889061265f565b80601f01602080910402602001604051908101604052809291908181526020018280546105b49061265f565b80156106015780601f106105d657610100808354040283529160200191610601565b820191906000526020600020905b8154815290600101906020018083116105e457829003601f168201915b5050505050905090565b600061061682610cca565b5061062082610d52565b9050919050565b6106398282610634610d8f565b610d97565b5050565b600073ffffffffffffffffffffffffffffffffffffffff168273ffffffffffffffffffffffffffffffffffffffff16036106af5760006040517f64a0ae920000000000000000000000000000000000000000000000000000000081526004016106a6919061217f565b60405180910390fd5b60006106c383836106be610d8f565b610da9565b90508373ffffffffffffffffffffffffffffffffffffffff168173ffffffffffffffffffffffffffffffffffffffff1614610739578382826040517f64283d7b00000000000000000000000000000000000000000000000000000000815260040161073093929190612690565b60405180910390fd5b50505050565b61075a838383604051806020016040528060008152506109c6565b505050565b600066b1a2bc2ec500003410156107ab576040517f08c379a00000000000000000000000000000000000000000000000000000000081526004016107a290612713565b60405180910390fd5b6107b58383610fc3565b905092915050565b60006107c882610cca565b9050919050565b60008073ffffffffffffffffffffffffffffffffffffffff168273ffffffffffffffffffffffffffffffffffffffff16036108425760006040517f89c62b64000000000000000000000000000000000000000000000000000000008152600401610839919061217f565b60405180910390fd5b600360008373ffffffffffffffffffffffffffffffffffffffff1673ffffffffffffffffffffffffffffffffffffffff168152602001908152602001600020549050919050565b60006108936110a7565b61089d8383610fc3565b905092915050565b6108ad6110a7565b6108b7600061112e565b565b6000600760009054906101000a900473ffffffffffffffffffffffffffffffffffffffff16905090565b6060600180546108f29061265f565b80601f016020809104026020016040519081016040528092919081815260200182805461091e9061265f565b801561096b5780601f106109405761010080835404028352916020019161096b565b820191906000526020600020905b81548152906001019060200180831161094e57829003601f168201915b5050505050905090565b60006001600983604051610989919061276f565b908152602001604051809103902060009054906101000a900460ff1660ff16149050919050565b6109c26109bb610d8f565b83836111f4565b5050565b6109d184848461063d565b6109dd84848484611363565b50505050565b60606109ee8261151a565b9050919050565b6000600560008473ffffffffffffffffffffffffffffffffffffffff1673ffffffffffffffffffffffffffffffffffffffff16815260200190815260200160002060008373ffffffffffffffffffffffffffffffffffffffff1673ffffffffffffffffffffffffffffffffffffffff16815260200190815260200160002060009054906101000a900460ff16905092915050565b610a916110a7565b600073ffffffffffffffffffffffffffffffffffffffff168173ffffffffffffffffffffffffffffffffffffffff1603610b035760006040517f1e4fbdf7000000000000000000000000000000000000000000000000000000008152600401610afa919061217f565b60405180910390fd5b610b0c8161112e565b50565b610b176110a7565b600047905060008111610b5f576040517f08c379a0000000000000000000000000000000000000000000000000000000008152600401610b56906127f8565b60405180910390fd5b81811015610ba2576040517f08c379a0000000000000000000000000000000000000000000000000000000008152600401610b9990612864565b60405180910390fd5b60008373ffffffffffffffffffffffffffffffffffffffff1683604051610bc8906128b5565b60006040518083038185875af1925050503d8060008114610c05576040519150601f19603f3d011682016040523d82523d6000602084013e610c0a565b606091505b5050905080610c4e576040517f08c379a0000000000000000000000000000000000000000000000000000000008152600401610c4590612916565b60405180910390fd5b50505050565b610c5c6110a7565b610c668147610b0f565b50565b6000634906490660e01b7bffffffffffffffffffffffffffffffffffffffffffffffffffffffff1916827bffffffffffffffffffffffffffffffffffffffffffffffffffffffff19161480610cc35750610cc28261162d565b5b9050919050565b600080610cd68361170f565b9050600073ffffffffffffffffffffffffffffffffffffffff168173ffffffffffffffffffffffffffffffffffffffff1603610d4957826040517f7e273289000000000000000000000000000000000000000000000000000000008152600401610d409190612018565b60405180910390fd5b80915050919050565b60006004600083815260200190815260200160002060009054906101000a900473ffffffffffffffffffffffffffffffffffffffff169050919050565b600033905090565b610da4838383600161174c565b505050565b600080610db58461170f565b9050600073ffffffffffffffffffffffffffffffffffffffff168373ffffffffffffffffffffffffffffffffffffffff1614610df757610df6818486611911565b5b600073ffffffffffffffffffffffffffffffffffffffff168173ffffffffffffffffffffffffffffffffffffffff1614610e8857610e3960008560008061174c565b6001600360008373ffffffffffffffffffffffffffffffffffffffff1673ffffffffffffffffffffffffffffffffffffffff168152602001908152602001600020600082825403925050819055505b600073ffffffffffffffffffffffffffffffffffffffff168573ffffffffffffffffffffffffffffffffffffffff1614610f0b576001600360008773ffffffffffffffffffffffffffffffffffffffff1673ffffffffffffffffffffffffffffffffffffffff168152602001908152602001600020600082825401925050819055505b846002600086815260200190815260200160002060006101000a81548173ffffffffffffffffffffffffffffffffffffffff021916908373ffffffffffffffffffffffffffffffffffffffff160217905550838573ffffffffffffffffffffffffffffffffffffffff168273ffffffffffffffffffffffffffffffffffffffff167fddf252ad1be2c89b69c2b068fc378daa952ba7f163c4a11628f55a4df523b3ef60405160405180910390a4809150509392505050565b60006001600983604051610fd7919061276f565b908152602001604051809103902060009054906101000a900460ff1660ff1603611036576040517f08c379a000000000000000000000000000000000000000000000000000000000815260040161102d90612982565b60405180910390fd5b60006008600081548092919061104b906129d1565b9190505590506001600984604051611063919061276f565b908152602001604051809103902060006101000a81548160ff021916908360ff16021790555061109384826119d5565b61109d81846119f3565b8091505092915050565b6110af610d8f565b73ffffffffffffffffffffffffffffffffffffffff166110cd6108b9565b73ffffffffffffffffffffffffffffffffffffffff161461112c576110f0610d8f565b6040517f118cdaa7000000000000000000000000000000000000000000000000000000008152600401611123919061217f565b60405180910390fd5b565b6000600760009054906101000a900473ffffffffffffffffffffffffffffffffffffffff16905081600760006101000a81548173ffffffffffffffffffffffffffffffffffffffff021916908373ffffffffffffffffffffffffffffffffffffffff1602179055508173ffffffffffffffffffffffffffffffffffffffff168173ffffffffffffffffffffffffffffffffffffffff167f8be0079c531659141344cd1fd0a4f28419497f9722a3daafe3b4186f6b6457e060405160405180910390a35050565b600073ffffffffffffffffffffffffffffffffffffffff168273ffffffffffffffffffffffffffffffffffffffff160361126557816040517f5b08ba1800000000000000000000000000000000000000000000000000000000815260040161125c919061217f565b60405180910390fd5b80600560008573ffffffffffffffffffffffffffffffffffffffff1673ffffffffffffffffffffffffffffffffffffffff16815260200190815260200160002060008473ffffffffffffffffffffffffffffffffffffffff1673ffffffffffffffffffffffffffffffffffffffff16815260200190815260200160002060006101000a81548160ff0219169083151502179055508173ffffffffffffffffffffffffffffffffffffffff168373ffffffffffffffffffffffffffffffffffffffff167f17307eab39ab6107e8899845ad3d59bd9653f200f220920489ca2b5937696c31836040516113569190611fe4565b60405180910390a3505050565b60008373ffffffffffffffffffffffffffffffffffffffff163b1115611514578273ffffffffffffffffffffffffffffffffffffffff1663150b7a026113a7610d8f565b8685856040518563ffffffff1660e01b81526004016113c99493929190612a6e565b6020604051808303816000875af192505050801561140557506040513d601f19601f820116820180604052508101906114029190612acf565b60015b611489573d8060008114611435576040519150601f19603f3d011682016040523d82523d6000602084013e61143a565b606091505b50600081510361148157836040517f64a0ae92000000000000000000000000000000000000000000000000000000008152600401611478919061217f565b60405180910390fd5b805181602001fd5b63150b7a0260e01b7bffffffffffffffffffffffffffffffffffffffffffffffffffffffff1916817bffffffffffffffffffffffffffffffffffffffffffffffffffffffff19161461151257836040517f64a0ae92000000000000000000000000000000000000000000000000000000008152600401611509919061217f565b60405180910390fd5b505b50505050565b606061152582610cca565b5060006006600084815260200190815260200160002080546115469061265f565b80601f01602080910402602001604051908101604052809291908181526020018280546115729061265f565b80156115bf5780601f10611594576101008083540402835291602001916115bf565b820191906000526020600020905b8154815290600101906020018083116115a257829003601f168201915b5050505050905060006115d0611a4f565b905060008151036115e5578192505050611628565b60008251111561161a578082604051602001611602929190612afc565b60405160208183030381529060405292505050611628565b61162384611a66565b925050505b919050565b60007f80ac58cd000000000000000000000000000000000000000000000000000000007bffffffffffffffffffffffffffffffffffffffffffffffffffffffff1916827bffffffffffffffffffffffffffffffffffffffffffffffffffffffff191614806116f857507f5b5e139f000000000000000000000000000000000000000000000000000000007bffffffffffffffffffffffffffffffffffffffffffffffffffffffff1916827bffffffffffffffffffffffffffffffffffffffffffffffffffffffff1916145b80611708575061170782611acf565b5b9050919050565b60006002600083815260200190815260200160002060009054906101000a900473ffffffffffffffffffffffffffffffffffffffff169050919050565b80806117855750600073ffffffffffffffffffffffffffffffffffffffff168273ffffffffffffffffffffffffffffffffffffffff1614155b156118b957600061179584610cca565b9050600073ffffffffffffffffffffffffffffffffffffffff168373ffffffffffffffffffffffffffffffffffffffff161415801561180057508273ffffffffffffffffffffffffffffffffffffffff168173ffffffffffffffffffffffffffffffffffffffff1614155b8015611813575061181181846109f5565b155b1561185557826040517fa9fbf51f00000000000000000000000000000000000000000000000000000000815260040161184c919061217f565b60405180910390fd5b81156118b757838573ffffffffffffffffffffffffffffffffffffffff168273ffffffffffffffffffffffffffffffffffffffff167f8c5be1e5ebec7d5bd14f71427d1e84f3dd0314c0f7b2291e5b200ac8c7c3b92560405160405180910390a45b505b836004600085815260200190815260200160002060006101000a81548173ffffffffffffffffffffffffffffffffffffffff021916908373ffffffffffffffffffffffffffffffffffffffff16021790555050505050565b61191c838383611b39565b6119d057600073ffffffffffffffffffffffffffffffffffffffff168373ffffffffffffffffffffffffffffffffffffffff160361199157806040517f7e2732890000000000000000000000000000000000000000000000000000000081526004016119889190612018565b60405180910390fd5b81816040517f177e802f0000000000000000000000000000000000000000000000000000000081526004016119c7929190612b20565b60405180910390fd5b505050565b6119ef828260405180602001604052806000815250611bfa565b5050565b80600660008481526020019081526020016000209081611a139190612cf5565b507ff8e1a15aba9398e019f0b49df1a4fde98ee17ae345cb5f6b5e2c27f5033e8ce782604051611a439190612018565b60405180910390a15050565b606060405180602001604052806000815250905090565b6060611a7182610cca565b506000611a7c611a4f565b90506000815111611a9c5760405180602001604052806000815250611ac7565b80611aa684611c16565b604051602001611ab7929190612afc565b6040516020818303038152906040525b915050919050565b60007f01ffc9a7000000000000000000000000000000000000000000000000000000007bffffffffffffffffffffffffffffffffffffffffffffffffffffffff1916827bffffffffffffffffffffffffffffffffffffffffffffffffffffffff1916149050919050565b60008073ffffffffffffffffffffffffffffffffffffffff168373ffffffffffffffffffffffffffffffffffffffff1614158015611bf157508273ffffffffffffffffffffffffffffffffffffffff168473ffffffffffffffffffffffffffffffffffffffff161480611bb25750611bb184846109f5565b5b80611bf057508273ffffffffffffffffffffffffffffffffffffffff16611bd883610d52565b73ffffffffffffffffffffffffffffffffffffffff16145b5b90509392505050565b611c048383611ce4565b611c116000848484611363565b505050565b606060006001611c2584611ddd565b01905060008167ffffffffffffffff811115611c4457611c43612263565b5b6040519080825280601f01601f191660200182016040528015611c765781602001600182028036833780820191505090505b509050600082602001820190505b600115611cd9578080600190039150507f3031323334353637383961626364656600000000000000000000000000000000600a86061a8153600a8581611ccd57611ccc612dc7565b5b04945060008503611c84575b819350505050919050565b600073ffffffffffffffffffffffffffffffffffffffff168273ffffffffffffffffffffffffffffffffffffffff1603611d565760006040517f64a0ae92000000000000000000000000000000000000000000000000000000008152600401611d4d919061217f565b60405180910390fd5b6000611d6483836000610da9565b9050600073ffffffffffffffffffffffffffffffffffffffff168173ffffffffffffffffffffffffffffffffffffffff1614611dd85760006040517f73c6ac6e000000000000000000000000000000000000000000000000000000008152600401611dcf919061217f565b60405180910390fd5b505050565b600080600090507a184f03e93ff9f4daa797ed6e38ed64bf6a1f0100000000000000008310611e3b577a184f03e93ff9f4daa797ed6e38ed64bf6a1f0100000000000000008381611e3157611e30612dc7565b5b0492506040810190505b6d04ee2d6d415b85acef81000000008310611e78576d04ee2d6d415b85acef81000000008381611e6e57611e6d612dc7565b5b0492506020810190505b662386f26fc100008310611ea757662386f26fc100008381611e9d57611e9c612dc7565b5b0492506010810190505b6305f5e1008310611ed0576305f5e1008381611ec657611ec5612dc7565b5b0492506008810190505b6127108310611ef5576127108381611eeb57611eea612dc7565b5b0492506004810190505b60648310611f185760648381611f0e57611f0d612dc7565b5b0492506002810190505b600a8310611f27576001810190505b80915050919050565b6000604051905090565b600080fd5b600080fd5b60007fffffffff0000000000000000000000000000000000000000000000000000000082169050919050565b611f7981611f44565b8114611f8457600080fd5b50565b600081359050611f9681611f70565b92915050565b600060208284031215611fb257611fb1611f3a565b5b6000611fc084828501611f87565b91505092915050565b60008115159050919050565b611fde81611fc9565b82525050565b6000602082019050611ff96000830184611fd5565b92915050565b6000819050919050565b61201281611fff565b82525050565b600060208201905061202d6000830184612009565b92915050565b600081519050919050565b600082825260208201905092915050565b60005b8381101561206d578082015181840152602081019050612052565b60008484015250505050565b6000601f19601f8301169050919050565b600061209582612033565b61209f818561203e565b93506120af81856020860161204f565b6120b881612079565b840191505092915050565b600060208201905081810360008301526120dd818461208a565b905092915050565b6120ee81611fff565b81146120f957600080fd5b50565b60008135905061210b816120e5565b92915050565b60006020828403121561212757612126611f3a565b5b6000612135848285016120fc565b91505092915050565b600073ffffffffffffffffffffffffffffffffffffffff82169050919050565b60006121698261213e565b9050919050565b6121798161215e565b82525050565b60006020820190506121946000830184612170565b92915050565b6121a38161215e565b81146121ae57600080fd5b50565b6000813590506121c08161219a565b92915050565b600080604083850312156121dd576121dc611f3a565b5b60006121eb858286016121b1565b92505060206121fc858286016120fc565b9150509250929050565b60008060006060848603121561221f5761221e611f3a565b5b600061222d868287016121b1565b935050602061223e868287016121b1565b925050604061224f868287016120fc565b9150509250925092565b600080fd5b600080fd5b7f4e487b7100000000000000000000000000000000000000000000000000000000600052604160045260246000fd5b61229b82612079565b810181811067ffffffffffffffff821117156122ba576122b9612263565b5b80604052505050565b60006122cd611f30565b90506122d98282612292565b919050565b600067ffffffffffffffff8211156122f9576122f8612263565b5b61230282612079565b9050602081019050919050565b82818337600083830152505050565b600061233161232c846122de565b6122c3565b90508281526020810184848401111561234d5761234c61225e565b5b61235884828561230f565b509392505050565b600082601f83011261237557612374612259565b5b813561238584826020860161231e565b91505092915050565b600080604083850312156123a5576123a4611f3a565b5b60006123b3858286016121b1565b925050602083013567ffffffffffffffff8111156123d4576123d3611f3f565b5b6123e085828601612360565b9150509250929050565b600060208284031215612400576123ff611f3a565b5b600061240e848285016121b1565b91505092915050565b60006020828403121561242d5761242c611f3a565b5b600082013567ffffffffffffffff81111561244b5761244a611f3f565b5b61245784828501612360565b91505092915050565b61246981611fc9565b811461247457600080fd5b50565b60008135905061248681612460565b92915050565b600080604083850312156124a3576124a2611f3a565b5b60006124b1858286016121b1565b92505060206124c285828601612477565b9150509250929050565b600067ffffffffffffffff8211156124e7576124e6612263565b5b6124f082612079565b9050602081019050919050565b600061251061250b846124cc565b6122c3565b90508281526020810184848401111561252c5761252b61225e565b5b61253784828561230f565b509392505050565b600082601f83011261255457612553612259565b5b81356125648482602086016124fd565b91505092915050565b6000806000806080858703121561258757612586611f3a565b5b6000612595878288016121b1565b94505060206125a6878288016121b1565b93505060406125b7878288016120fc565b925050606085013567ffffffffffffffff8111156125d8576125d7611f3f565b5b6125e48782880161253f565b91505092959194509250565b6000806040838503121561260757612606611f3a565b5b6000612615858286016121b1565b9250506020612626858286016121b1565b9150509250929050565b7f4e487b7100000000000000000000000000000000000000000000000000000000600052602260045260246000fd5b6000600282049050600182168061267757607f821691505b60208210810361268a57612689612630565b5b50919050565b60006060820190506126a56000830186612170565b6126b26020830185612009565b6126bf6040830184612170565b949350505050565b7f4e65656420746f20706179207570210000000000000000000000000000000000600082015250565b60006126fd600f8361203e565b9150612708826126c7565b602082019050919050565b6000602082019050818103600083015261272c816126f0565b9050919050565b600081905092915050565b600061274982612033565b6127538185612733565b935061276381856020860161204f565b80840191505092915050565b600061277b828461273e565b915081905092915050565b7f4e6f7468696e6720746f2077697468647261773b20636f6e747261637420626160008201527f6c616e636520656d707479000000000000000000000000000000000000000000602082015250565b60006127e2602b8361203e565b91506127ed82612786565b604082019050919050565b60006020820190508181036000830152612811816127d5565b9050919050565b7f436f6e747261637420696e737566666369656e742066756e6400000000000000600082015250565b600061284e60198361203e565b915061285982612818565b602082019050919050565b6000602082019050818103600083015261287d81612841565b9050919050565b600081905092915050565b50565b600061289f600083612884565b91506128aa8261288f565b600082019050919050565b60006128c082612892565b9150819050919050565b7f4661696c656420746f2073656e64204574686572000000000000000000000000600082015250565b600061290060148361203e565b915061290b826128ca565b602082019050919050565b6000602082019050818103600083015261292f816128f3565b9050919050565b7f4e465420616c7265616479206d696e7465642100000000000000000000000000600082015250565b600061296c60138361203e565b915061297782612936565b602082019050919050565b6000602082019050818103600083015261299b8161295f565b9050919050565b7f4e487b7100000000000000000000000000000000000000000000000000000000600052601160045260246000fd5b60006129dc82611fff565b91507fffffffffffffffffffffffffffffffffffffffffffffffffffffffffffffffff8203612a0e57612a0d6129a2565b5b600182019050919050565b600081519050919050565b600082825260208201905092915050565b6000612a4082612a19565b612a4a8185612a24565b9350612a5a81856020860161204f565b612a6381612079565b840191505092915050565b6000608082019050612a836000830187612170565b612a906020830186612170565b612a9d6040830185612009565b8181036060830152612aaf8184612a35565b905095945050505050565b600081519050612ac981611f70565b92915050565b600060208284031215612ae557612ae4611f3a565b5b6000612af384828501612aba565b91505092915050565b6000612b08828561273e565b9150612b14828461273e565b91508190509392505050565b6000604082019050612b356000830185612170565b612b426020830184612009565b9392505050565b60008190508160005260206000209050919050565b60006020601f8301049050919050565b600082821b905092915050565b600060088302612bab7fffffffffffffffffffffffffffffffffffffffffffffffffffffffffffffffff82612b6e565b612bb58683612b6e565b95508019841693508086168417925050509392505050565b6000819050919050565b6000612bf2612bed612be884611fff565b612bcd565b611fff565b9050919050565b6000819050919050565b612c0c83612bd7565b612c20612c1882612bf9565b848454612b7b565b825550505050565b600090565b612c35612c28565b612c40818484612c03565b505050565b5b81811015612c6457612c59600082612c2d565b600181019050612c46565b5050565b601f821115612ca957612c7a81612b49565b612c8384612b5e565b81016020851015612c92578190505b612ca6612c9e85612b5e565b830182612c45565b50505b505050565b600082821c905092915050565b6000612ccc60001984600802612cae565b1980831691505092915050565b6000612ce58383612cbb565b9150826002028217905092915050565b612cfe82612033565b67ffffffffffffffff811115612d1757612d16612263565b5b612d21825461265f565b612d2c828285612c68565b600060209050601f831160018114612d5f5760008415612d4d578287015190505b612d578582612cd9565b865550612dbf565b601f198416612d6d86612b49565b60005b82811015612d9557848901518255600182019150602085019450602081019050612d70565b86831015612db25784890151612dae601f891682612cbb565b8355505b6001600288020188555050505b505050505050565b7f4e487b7100000000000000000000000000000000000000000000000000000000600052601260045260246000fdfea264697066735822122095bde80ef3506c166afd583f55dcbab7c228cb6e03c64708b03d89314e0b95c664736f6c63430008140033",
  "linkReferences": {},
  "deployedLinkReferences": {}
}